:020000040000fa
:10000000f03f0020d50600006309000065090000ec
:1000100000000000000000000000000000000000e0
:100020000000000000000000000000006109000066
:1000300000000000000000006109000061090000ec
:100040006109000061090000610900006109000008
:1000500061090000610900006109000061090000f8
:100060006109000061090000210900006109000028
:1000700061090000610900006109000061090000d8
:1000800061090000610900006109000061090000c8
:1000900061090000610900006109000061090000b8
:1000a00061090000610900006109000061090000a8
:0c00b00061090000610900006109000006
:020000040000fa
:1000bc00f8b5c046f8bc08bc9e467047b5060000b3
:1000cc00f8b5c046f8bc08bc9e4670478d060000cb
:020000040000fa
:1000dc00f0b5c64600b5574b9b7d002b17d0554a43
:1000ec00137edbb2927d52b2002a13db514a137e8f
:1000fc00dbb2927dd20702d5db0700d582e04d4af8
:10010c00137edbb2927d520701d55b074bd404bc46
:10011c009046f0bd5bb2002be8da464b5b8b0722b6
:10012c001340e3d0444ce38500f02efb414b84227a
:10013c001a752c230022e254636a002bd6d03e4a57
:10014c00906a9847d2e7bb68f35c0b8593680133e0
:10015c009360936898460b7e23420bd0404509d997
:10016c004b682b40012beed163469b685b009b5b7d
:10017c000b85ebe7304b9a685b689a42bfd32e4bea
:10018c0000221a755a602b4a01211175db68002b6d
:10019c00b5d0294a10699847b1e727490a6a896995
:1001ac005200535215e0244a2c23d35c002baed0c2
:1001bc00214b1a6adb699a42a9d21e4a138d9bb253
:1001cc00516807220a40012ae7d01b4a116a92693a
:1001dc005354194b1a6a01321a621a6adb699a4231
:1001ec0000d094e7144b00222c215a54da61114aa6
:1001fc00583111755b6a002b00d188e70e4a906a62
:10020c00984784e70c4b1b7d002b00d177e70a4bfa
:10021c009a685868074b1b7edb07abd58242a9d284
:10022c00054b1e68034907259c461f001a00012434
:0c023c0096e7c046000800428c0000203d
:020000040000fa
:1002480030b583b0002301932c4b1b78002b2fd0a3
:10025800412000f071fbf82464022200042101a867
:1002680000f062fb0028f8d0ff23019a13400a2b04
:100278002bd00b2b30d022484c3000f0c7fa80230b
:100288005b011c68621c0cd05d6800f05dfb0028f7
:10029800fbd11c4bc046013b002bfbd184f30888e3
:1002a8002847164b1b78002b1dd0022003b030bd09
:1002b8001548134b1833020032cb32c2196811604b
:1002c8001b79137100f0a2fac2e70d482c3000f038
:1002d8009dfa80235b01d4e709483c3000f096fa88
:1002e80080235b02cde70848054b6033020032cb20
:1002f80032c21b68136000f089fad6e7e2000020da
:0c03080014030000ffff00005000002064
:020000040000fa
:10031400424f4f542d4c6f616465722046494e49db
:10032400534845440d0a00005374617274204a55c1
:100334004d50202e2e2e0d0a00000000466c6173d5
:1003440068204a756d7020410d0a0000466c617387
:1003540068204a756d7020420d0a0000466c617376
:100364006820213d2041206f7220420d0a000000c8
:100374004a554d5020446f6e65202e2e2e0d0a00d6
:100384004a554d5020524554525920434845434bf9
:040394000d0a00004e
:020000040000fa
:10039800bc0000201c00000000000000e20000205b
:1003a8000100000000000000e30000200100000040
:1003b80000000000500000203c0000000000000089
:1003c8008c0000203000000000000000e000002049
:1003d8000200000000000000d80000200400000017
:1003e8000000000000000020500000000000000095
:1003f800dc000020040000000000000000000000f5
:1004080000000000444444444444444444444444b4
:020000040000fa
:10041800174b5a6852031b68db0c13439b029b0a59
:10042800144a936300235375110004228b691a42fe
:10043800fcd110491022cb681a42fcd00e4b002286
:100448009a611a610d4b0e4a1a62190004224b6810
:100458001a42fcd1094ad0234021d15010009031d2
:10046800402243581a42fcd0064b0422da617047f6
:10047800206080000010004000140040001c004074
:0804880006010100000800401c
:020000040000fa
:1004900070b500282fd0194b1a7d0023002a26d1d1
:1004a000164b1860596001321a75154b1b7edb071d
:1004b00016d500291dd00023114c0726012507e081
:1004c000c25c22850133227e2a420ad0994208d991
:1004d00062683240012af3d15a00825a2285f1e73c
:1004e0000023064a9360064b01229a7501231800e7
:1004f00070bd0b00f5e70023f9e7c0468c00002033
:0405000000080042ad
:020000040000fa
:100504000021f0b5174b184a934208d30027174a25
:1005140013685168002b05d1002903d1f0bd19706f
:100524000133f1e7100095680c305c18002d16d0eb
:100534000b25ed1a5219a3420ad10b0003221340d2
:100544005a1e934189085918890040180200dfe7b0
:100554005d1cae5c1e702b00ede71f700133a342df
:10056400fbd1f3e700000020000000209803000006
:020000040000fa
:1005740070b5134b06225a6000f0dcf9fff74aff0e
:1005840000f0e0f90f4bc22189005a580e4802408e
:100594005a508022d2001a6000f0bcf900f0c2f96f
:1005a4000a480b4b020032cb32c212cb12c219885a
:1005b40011809b78937000f02bf9012070bdc04628
:1005c4000040004100e100e0ffff00ff5000002078
:0405d400140300000c
:020000040000fa
:1005d80000230e4a10b513600d4a13600d4a1360cc
:1005e8000d4a13600d4a13600d4a536213610133bb
:1005f800936000f0b4f900f0b2f90a4c0a4b9c423f
:1006080000d310bd08cc9847f8e7c046dc000020ae
:100618000c0000200800002000000020040000203a
:0c06280010000020c8000000cc00000002
:020000040000fa
:10063400114b124a1a60124a9a81c02292025a60dd
:100644001a00d369002bfcd10b4a136802210b4317
:100654001360d369002bfcd10a4b00229a61da6142
:100664001a622c215a545a621a605a609a601a7596
:10067400da60da857047c046000800420401104081
:080684002bf6ffff8c000020a3
:020000040000fa
:10068c0010b5064c2378002b07d1054b002b02d05c
:10069c00044800e000bf0123237010bdbc00002003
:1006ac000000000000000000044b10b5002b03d02c
:1006bc000349044800e000bf10bdc0460000000024
:0806cc00c00000200000000046
:020000040000fa
:1006d40010b50a4b98470a4b984700f03bf9094b71
:1006e400ff229343084a9360084b9847084b984766
:1006f400084b984700f030f8fee7c046ff080000ba
:10070400ff0800000000000000ed00e0d905000033
:08071400ff080000ff080000cf
:020000040000fa
:10071c0070b50c4b1b78002b01d0012070bd094b20
:10072c0001221a700848094b7033020032cb32c2d6
:10073c0019681160998891809b79937100f064f825
:10074c00ebe7c046e200002050000020140300003c
:020000040000fa
:10075c0070b50c4b1a88ff231b029a4210d8094c17
:10076c000026250000e0268000f09cf80028fad135
:10077c002b8801339bb22b80ff2212029342f3d9b8
:08078c00012070bde000002017
:020000040000fa
:10079400094b5b8b5b070dd0074b80221a76793aa5
:1007a4005a831b7e5b0705d5034b04211a8d1a7ee1
:0c07b4000a42fbd17047c046000800421a
:020000040000fa
:1007c00010b5012809d0002803d0022809d0002044
:1007d00010bd0020fff7cefefae70020fff734fd42
:0a07e000f6e70020fff79afff2e7aa
:020000040000fa
:1007ea008223db050122de215a5401315a54be32da
:1007fa00bd399954bd3ade315a504221ff315a541b
:0a080a002f32ff320021995470478d
:020000040000fa
:1008140070b50500074c00f099f8002802d0013c9f
:10082400002cf8d1280000f060f80100280000f046
:0808340017f870bd932b0000c2
:020000040000fa
:10083c0010b504235c2801d9180010bd1b330340ec
:10084c0001219940400982231b049c466044c0014d
:08085c0000f016f80300efe7bd
:020000040000fa
:1008640070b5fff713fe051e01d1280070bd054cbd
:1008740000f04af80028f8d0013c002cf8d105001b
:08088400f3e7c046932b0000ce
:020000040000fa
:10088c00802302009a438223db059a4203d0044a58
:10089c000423904201d18161012318007047c046a6
:0408ac000001004106
:020000040000fa
:1008b00010b5054c2078fff783ff2070002302223b
:0c08c00082425b41d8b210bde300002072
:020000040000fa
:1008cc00002310b59a4200d110bdcc5cc454013346
:0208dc00f8e73b
:020000040000fa
:1008de0010b513000a001900fff7f1ff012010bd3b
:020000040000fa
:1008ee0003001a78002a01d1181a70470133f8e76d
:020000040000fa
:0208fe00704741
:020000040000fa
:0c090000014b84225a6070470040004107
:020000040000fa
:0c090c00014b187dc0b270478c00002029
:020000040000fa
:08091800bff35f8f62b6704768
:020000040000fa
:0809200010b5fff7dbfb10bd71
:020000040000fa
:0809280010b5fff7e9ff10bd57
:020000040000fa
:0809300010b5fff7d4ff10bd64
:020000040000fa
:0809380010b5fff756ff10bdda
:020000040000fa
:0809400010b5fff77bff10bdad
:020000040000fa
:0809480010b5fff773fe10bdae
:020000040000fa
:0809500010b5fff7dbff10bd3d
:020000040000fa
:0809580010b5fff7d3fd10bd3f
:020000040000fa
:02096000fee7b0
:020000040000fa
:02096200fee7ae
:020000040000fa
:02096400fee7ac
:020000040000fa
:020966007047d8
:00000001FF
